:100000000C9443010C946B010C946B010C946B01E8
:100010000C946B010C946B010C949B0E0C946B0173
:100020000C946B010C947E0D0C946B010C946B0181
:100030000C946B010C946B010C946B010C946B0190
:100040000C94E50E0C946B010C94C4110C94F611F5
:100050000C946B010C94E70B0C946B010C946B01EA
:100060000C943D080C946B01F304F304F304E104D5
:10007000E704F304E104E104F304F004F304E1040D
:10008000F30454657374696E6720444F4E450A004B
:1000900054657374696E67205354415254000A5278
:1000A000455631302048617264776172652054652D
:1000B0007374732076004641494C005041535300FD
:1000C00054657374696E672053494D393030200090
:1000D00054657374696E6720444F4E45004348452C
:1000E000434B0054657374696E672055494C454411
:1000F00020004641494C00504153530054657374ED
:10010000696E672052464D32334220004641494CC9
:10011000200050415353200054657374696E67206A
:10012000544D50313132200050415353200046414C
:10013000494C200054657374696E67204C69676888
:100140007453656E736F7220004641494C005041F4
:1001500053530054657374696E67205874616C2042
:1001600000434845434B200054657374696E672013
:10017000566363200054494D454F5554004348454C
:10018000434B0054657374696E67205365726961EF
:100190006C20000500060007010800097F0A060B15
:1001A000150C120D000E000F001000122013001489
:1001B000031500160119011A141C061D441E0A1FFE
:1001C000032045210122D723DC2407256E271E2A80
:1001D000282C402D0A2E2D308832003302340A3567
:1001E0002A362D37D4380039003A003B003C003D18
:1001F000003E003F0040004100420043FF44FF45F5
:10020000FF46FF4F1060A0622469606D0B6E0E6F99
:10021000BF700C7123722E730074007573766A7749
:100220004079007A007C377D047E37FFFF000000B4
:1002300008000201000003040700000000000000A5
:10024000000102040810204080010204081020016F
:10025000020408102004040404040404040202023A
:100260000202020303030303030000000025002829
:10027000002B0000000000240027002A00006E046C
:100280005307790D261211241FBECFEFD8E0DEBF31
:10029000CDBF11E0A0E0B1E0ECECF7E202C00590C8
:1002A0000D92AC3CB107D9F723E0ACECB1E001C052
:1002B0001D92AC36B207E1F712E0C6E8D2E004C006
:1002C0002297FE010E94D213CE37D107C9F70E94B0
:1002D0008A130C94E4130C94000026E040EC52E1E5
:1002E00060E070E08FEC92E00E9468118FEC92E089
:1002F0000E94D1126EE970E08FEC92E00E94A7128A
:100300004AE050E060E08FEC92E00E9455136EE20C
:100310008FEC92E00E94CA124AE050E062E08FEC5B
:1003200092E00E9455136EE28FEC92E00E94CA1296
:100330004AE050E060E08FEC92E00E945C138FECAA
:1003400092E00E94E1100E94D3040E9414050E94D2
:100350002E0460ED77E080E090E00C945E0F60E9A1
:1003600070E08FEC92E00E94D5128FEC92E00E9438
:10037000E1100E94D4050E941A050E943A050E94CD
:1003800057050E9418030E947B050E94A7050E9442
:1003900050030E94190362E870E08FEC92E00C9425
:1003A000D51281E06115784F09F080E0089584E06E
:1003B00008958CE30895FC0182819381089581E082
:1003C00091E0089581E00895DC01ED91FC910480B5
:1003D000F581E02D60E070E0099481E00895EF92EE
:1003E0000F931F93DC01ED91FC910688F789E02DB6
:1003F000E12C09951F910F91EF900895FB01108258
:10040000FA011082089581E0089580E090E0089557
:10041000089580E090E008950895FC019FB7F89456
:10042000838513869FBF0895FB011082FA01108215
:1004300080E4F90180830895FC018089089580E0BB
:1004400090E0089508958FB7F8948FBF089580E0E5
:1004500008958FEF9FEF08958FEF9FEF0895089510
:1004600081E0089580E0089580E0089580E0089597
:1004700080E0089581E0089580E0089581E0089586
:1004800080E0089580E0089580E0089581E0089577
:1004900080E008958EBD0DB407FEFDCF8EB50895A2
:1004A0008EBD0DB407FEFDCF08952A9808950C94D3
:1004B00055022A9A08950C945902CF93DF9300D0E5
:1004C000CDB7DEB76A8389830E945502898180682F
:1004D0000E9450026A81862F0E9450020F900F9056
:1004E000DF91CF910C945902862F642F0C945D02FA
:1004F000CF93DF931F92CDB7DEB769830E94550279
:100500006981862F8F770E944A0280E00E944A020A
:1005100089830E94590289810F90DF91CF910895BC
:1005200069E087E00C945D0265E087E00C945D0271
:100530000E94550283E00E944A0280E00E944A0223
:1005400080E00E944A020C9459020C94980260E0E8
:1005500087E00C945D02CF93DF9300D0CDB7DEB778
:100560004FB7F89420E63AEE3A832983189B09C0E6
:1005700029813A81215031093A832983232BB1F70C
:100580002EC02DE02A9501F0E9F720E030E050E0A0
:1005900072E1672F6A9501F0E9F763B1862F8170E8
:1005A00090E0022E02C0880F991F0A94E2F7852B73
:1005B000582F2F5F3F4F2830310559F720E63AEE8C
:1005C0003A832983189909C029813A812150310938
:1005D0003A832983232BB1F702C04FBF03C04FBF1B
:1005E0008FEF9FEF0F900F90DF91CF9108954FB74E
:1005F000F8945D9887E18A9501F0E9F788E090E04A
:1006000021E057E1322F362311F05D9A01C05D9849
:10061000352F3A9501F0E9F7220F019799F75D9A86
:1006200087E18A9501F0E9F74FBF81E090E00895F6
:10063000089563EE70E08FEC92E00E94A71261E0F3
:1006400084E00E94161061E086E00E9416106DEDB5
:1006500070E08FEC92E00E94D51260ED70E08FECBC
:1006600092E00E94D51260E084E00E944F1060E0AA
:1006700086E00E944F1064E670E080E090E00E9407
:100680005E0F61E084E00E944F1061E086E00E940E
:100690004F1064EF71E080E090E00E945E0FE3CFC6
:1006A000CF92DF92EF92FF920F931F93CF93DF933E
:1006B000CDB7DEB72C970FB6F894DEBF0FBECDBF17
:1006C00081E494E5A0E08A879B87AC87CE01019600
:1006D0007C0189E0F70111928A95E9F760EC70E0FE
:1006E0008FEC92E00E94A71261E081E10E94161057
:1006F00061E080E10E94161062E088E00E9416101E
:1007000061E085E00E9416105D9A60E081E10E9440
:100710004F1060E080E10E944F1064EF71E080E0D4
:1007200090E00E945E0F61E080E10E944F1068EE51
:1007300073E080E090E00E945E0F60E080E10E9444
:100740004F1060ED77E080E090E00E945E0F6E0158
:10075000FAE0CF0ED11CB6018BEE91E00E94E712B9
:1007600087018BEE91E00E94AB02F80181938F012B
:10077000EC15FD05B1F742E050E0BF01C7010E9452
:10078000D613892B19F46BEB70E002C066EB70E0B6
:100790008FEC92E00E94D5122C960FB6F894DEBF33
:1007A0000FBECDBFDF91CF911F910F91FF90EF90C2
:1007B000DF90CF900895CF93CFB7F89480916400E5
:1007C00082FD03C0CFBF80E00FC02A9A61E08AE0BB
:1007D0000E941610809164008B7F8093640080E5F6
:1007E0008CBD81E08DBDCFBFCF9108950C94DB030C
:1007F000CF93CFB7F8942A9A8CB58F7B8CBDE4E663
:10080000F0E080818460808361E08AE00E941610BD
:1008100061E08DE00E94161061E08BE00E941610EE
:1008200062E08CE00E941610CFBFCF9108950C9427
:10083000F803CF930E94DB03C82F60E887E00E9493
:100840005D0260E087E00E945D02CC2319F0CF9149
:100850000C94F803CF9108950C9419040E94190484
:1008600081E08093D2018CEC91E09093D40180934D
:10087000D301E091CF01F091D0010190F081E02D02
:100880008FEC91E00994CF93DF93CFB7F8940E9457
:10089000DB03D82F60E087E00E945D0263E088E020
:1008A0000E945D0260E088E00E945D020E945502A5
:1008B00085E80E94500280E00E94500280E00E9481
:1008C00050020E9459020E949802D11104C0CFBF69
:1008D000DF91CF9108950E94F803F9CF1092EE01B5
:1008E0001092ED0188EE93E0A0E0B0E08093EF017C
:1008F0009093F001A093F101B093F2018BE191E0AC
:100900009093EC018093EB0180E098EF9093EA01E3
:100910008093E90182E991E09093E8018093E701F7
:100920008AE791E09093E1018093E0011092E50164
:100930001092E40181E08093E6018FEF8093D10172
:100940001092D2011092D4011092D3011092D501CD
:100950001092D6011092D8011092D7011092D901AD
:100960001092DA018CE38093DB011092DC018BE2C0
:1009700091E09093D0018093CF011092DF018BE042
:1009800091E09093DE018093DD0183E991E0909303
:10099000CD018093CC01EEECF1E080818760877E11
:1009A0008F7D80830895CF93DF93CEE0D0E02197B1
:1009B000F8F0CD30D10528F4FE01EC5CFF4F0C942B
:1009C000D01360E08C2F0E944F1061E00DC061E0F9
:1009D00084E00E94161060E084E00E944F10E7CF90
:1009E00060E089E002C062E08C2F0E941610DFCF29
:1009F0000E94450D8091640081FF0EC080916400CB
:100A00008D7F8093640026E040EC52E160E070E06E
:100A10008FEC92E00E9468110E94E70C8FEC92E04C
:100A2000DF91CF910C94E1100E94F90C8FEC92E0D1
:100A30000C94E110CF93DF9368E671E08FEC92E0C5
:100A40000E94A71280EE91E00E94C10CEC0161E6C9
:100A500071E08FEC92E00E94A7124AE050E0BE01E4
:100A60008FEC92E00E9473138FEC92E0DF91CF91B4
:100A70000C94E11063E571E08FEC92E00E94A71204
:100A800064EF71E080E090E00E945E0F0E948D0CA8
:100A9000882319F06EE471E002C069E471E08FEC24
:100AA00092E00E94D5128FEC92E00C94E110CF936B
:100AB00064E371E08FEC92E00E94A71280E00E9454
:100AC000D00FC82F8FEF8C0F8E3F18F06EE271E0C1
:100AD00002C068E271E08FEC92E00E94A7124AE047
:100AE00050E06C2F8FEC92E00E945C138FEC92E050
:100AF000CF910C94E110CF93DF9368E171E08FEC1C
:100B000092E00E94A7128FEC92E00E94E11087EE23
:100B100091E00E94C60DEC01815F91098F389140F0
:100B200018F462E171E002C06CE071E08FEC92E0D9
:100B30000E94A7124AE050E0BE018FEC92E00E94B2
:100B400073138FEC92E0DF91CF910C94E1106CEF76
:100B500070E08FEC92E00E94A7128FEC92E00E946E
:100B6000E110E091CF01F091D0010084F185E02DFA
:100B70008FEC91E00995882319F067EF70E002C0CF
:100B800062EF70E08FEC92E00E94D512E091CF010D
:100B9000F091D001068CF78DE02D8FEC91E0099556
:100BA0008FEC92E00C94E110CF92DF92EF92FF92E3
:100BB000CF9363E871E08FEC92E00E94A7128FEC74
:100BC00092E00E948510181619062CF48FEC92E022
:100BD0000E949E10F4CF6DE771E08FEC92E00E94CE
:100BE000D5128FEC92E00E94E1100E942F0F60530B
:100BF000784FC5E06B01E12CF12C0E942F0F6C1592
:100C00007D058E059F05D8F48FEC92E00E9485103B
:100C10001816190694F78FEC92E00E949E10682F28
:100C20008FEC92E00E94CA12C15039F78FEC92E02B
:100C3000CF91FF90EF90DF90CF900C94D11265E7A9
:100C400071E08FEC92E00E94D5128FEC92E0CF9190
:100C5000FF90EF90DF90CF900C94E11080912702ED
:100C600090E020912802821B91090895209128028A
:100C700080912702281750F4E22FF0E0E75DFD4F46
:100C8000808190E02F5F2093280208958FEF9FEFDF
:100C90000895E091280280912702E81730F4F0E0EF
:100CA000E75DFD4F808190E008958FEF9FEF0895FD
:100CB0000895CF92DF92EF92FF920F931F93CF93FD
:100CC000DF937C01CB018A0120910302222389F06A
:100CD000EB016B01C40ED51ECC15DD0569F06991E1
:100CE000D701ED91FC910190F081E02DC7010995AC
:100CF000F3CF642F0E941408C801DF91CF911F9198
:100D00000F91FF90EF90DF90CF900895CF93DF93F6
:100D10001F92CDB7DEB76983209103022223D1F061
:100D200020910402203240F021E030E0FC013383C6
:100D3000228380E090E015C080910502E82FF0E06A
:100D4000EA5FFD4F998190838F5F809305028093C6
:100D5000040205C061E0CE0101960E94140881E002
:100D600090E00F90DF91CF910895FC0113821282E1
:100D700048EE53E060E070E04483558366837783F8
:100D800085E691E091838083089510922802109265
:100D9000270210920502109204020C94570781E07A
:100DA00080930302609326021092050210920402BF
:100DB00008950F93062F21E04091040266E072E04F
:100DC000809126020E94BD07109205021092040233
:100DD000109203020F9108958F929F92AF92BF924B
:100DE000CF92DF92EF92FF920F931F93CF93DF93F7
:100DF000EC01F62ED42E48015901EE2019F10E9483
:100E0000CF061E2D143008F013E01150B8F0E88121
:100E1000F98128E0129FB0011124A501940104C0BA
:100E200056954795379527956A95D2F7CA01B90126
:100E30000190F081E02DCE010995E7CF60E0CE0171
:100E40000E94D9064D2D413208F040E22C2D69E276
:100E500072E08F2D0E94750710922802809327025E
:100E6000DF91CF911F910F91FF90EF90DF90CF9086
:100E7000BF90AF909F908F900895CF92EF920F9375
:100E80001F93C22EE12C00E010E098010E94EC06B6
:100E90001F910F91EF90CF90089521E00C943D07A2
:100EA00061E00C94D90687EF91E00C94B50610929E
:100EB000B60281E08093B4021092B30261E082E155
:100EC0000E944F1061E083E10E944F10E9EBF0E0D7
:100ED00080818E7F808380818D7F80838DEF809362
:100EE000B80085E48093BC000895413208F043C007
:100EF0009091B6029111FCCF91E09093B6022093AD
:100F0000B4022FEF2093490210928E02240F2093F7
:100F10008D029093B5029091B502880F892B809332
:100F2000B5028091B302813061F41092B3028091D6
:100F3000B5028093BB008091BC0083FDF8CF85ECA7
:100F400001C085EE8093BC008091B6028130E1F350
:100F500080918E02841710F440918E022FE832E0C7
:100F6000FB01D9018A2F821B841718F48D9181937C
:100F7000F9CF842F089580E008950F93413208F04F
:100F80004AC09091B6029111FCCF92E09093B602C4
:100F90000093B4029FEF9093490210928E02409307
:100FA0008D02FB016FE872E0DB019A2F961B94170C
:100FB00018F491919D93F9CF1092B5029091B502DA
:100FC000880F892B8093B5028091B302813061F440
:100FD0001092B3028091B5028093BB008091BC0057
:100FE00083FDF8CF85EC01C085EE8093BC00222301
:100FF00021F08091B6028230E1F3809149028F3F67
:1010000061F080914902803251F080914902803331
:1010100041F483E007C081E005C080E003C082E0C6
:1010200001C084E00F910895613298F42091B602D6
:10103000243089F460936B02FC018DE692E0DC01C0
:101040002A2F281B261718F421912D93F9CF80E021
:10105000089581E0089582E0089585ED8093BC00B5
:101060008091BC0084FDFCCF1092B602089585ECFF
:101070008093BC001092B60208951F920F920FB693
:101080000F9211242F933F934F935F936F937F930E
:101090008F939F93AF93BF93EF93FF938091B9008A
:1010A000887F803609F49EC078F5883209F45DC0E7
:1010B00090F4803109F456C038F4882309F4F5C05F
:1010C000883009F44FC0F5C0883109F44EC0803231
:1010D00009F45FC0EEC0803409F46AC058F480336C
:1010E00009F457C0883309F0E4C0809349020E9494
:1010F0003708DFC0803509F44FC0883509F45DC07A
:10110000883409F0D6C0D3C0883909F4C4C0A8F423
:10111000883709F467C038F4883609F463C080372B
:1011200009F460C0C6C0883809F4B5C0803909F434
:101130005FC0803809F0BDC05BC0803B09F483C04C
:1011400038F4803A09F466C0883A09F47CC0B1C02A
:10115000803C09F4A4C0883C09F4A1C0883B09F490
:1011600087C0A7C08091B50210C090918E02809177
:101170008D02981770F5E0918E0281E08E0F8093BA
:101180008E02F0E0E157FD4F80818093BB0085EC3B
:1011900083C0809349028BC0E0918E0281E08E0F64
:1011A00080938E028091BB00F0E0E157FD4F808379
:1011B00090918E0280918D026BC0E0918E0281E051
:1011C0008E0F80938E028091BB00F0E0E157FD4FBF
:1011D00080838091B40281116AC081E08093B30260
:1011E00084EA5EC083E08093B60210924A02CFCFB9
:1011F00080914A02803208F04EC0E0914A0281E0BC
:101200008E0F80934A028091BB00F0E0E55BFD4FBA
:101210008083BDCF0E94370880914A02803230F42B
:10122000E0914A02F0E0E55BFD4F108260914A02D6
:1012300070E0E091AF02F091B0028BE492E009958A
:1012400010924A0236C084E08093B60210926C027B
:1012500010926B02E091B102F091B2020995809177
:101260006B02811105C081E080936B0210926D02C8
:10127000E0916C0281E08E0F80936C02F0E0E35904
:10128000FD4F80818093BB0090916C0280916B0236
:10129000981708F47CCF85E88093BC000AC085ECE1
:1012A0008093BC001092B60204C0109249020E94C2
:1012B0002D08FF91EF91BF91AF919F918F917F91F9
:1012C0006F915F914F913F912F910F900FBE0F90B3
:1012D0001F901895DC01ED91FC9104A4F5A5E02D7B
:1012E000099581E008950F931F93CF93DF93EC014D
:1012F000E881F98104A0F5A1E02D0995082FE88186
:10130000F98102A4F3A5E02D60E0CE0109958830B3
:1013100059F4E881F98102A4F3A5E02D61E0CE0142
:10132000099511E0863009F010E0002339F0E881DA
:10133000F98106A0F7A1E02DCE010995812FDF915B
:10134000CF911F910F910895EF92FF920F931F93EA
:10135000CF93DF93EC018B01FFB6F894E881F9811C
:1013600004A0F5A1E02D0995E82EF80164913196CD
:1013700044916F3F59F0A881B9819896ED91FC9105
:101380009997CE0109950E5F1F4FEFCFEE2039F0F0
:10139000E881F98106A0F7A1E02DCE010995FFBEF5
:1013A000DF91CF911F910F91FF90EF9008951F93C0
:1013B000CF93DF93EC010E947309182F882371F0FB
:1013C000EC81FD8160817181CE010E94A409E881D8
:1013D000F98104A4F5A5E02DCE010995812FDF91B7
:1013E000CF911F910895CF93DF93EC01E881F981AC
:1013F00000A4F1A5E02D41E068E00995E881F981BC
:1014000000A4F1A5E02D40E068E0CE01DF91CF918E
:101410000994EF92FF920F931F93CF93DF9300D025
:101420001F92CDB7DEB77C011FB7F894DC01ED91B8
:10143000FC9104A0F5A1E02D49836A837B83099583
:10144000082FC7010E94F309D701ED91FC9100A07C
:10145000F1A1E02DC70109958FEF8EBD7B816A81D7
:1014600049810DB407FEFDCFFB01415030F0819161
:101470008EBD0DB407FEFDCFF8CFD701ED91FC91E5
:1014800002A0F3A1E02DC7010995002341F0D70187
:10149000ED91FC9106A0F7A1E02DC70109951FBFB2
:1014A0000F900F900F90DF91CF911F910F91FF90B0
:1014B000EF900895EF92FF920F931F93CF93DF93D6
:1014C000EC01E881F98104A0F5A1E02D0995F82E41
:1014D0001FB7F894E881F98100A4F1A5E02D40E060
:1014E00065E0CE010995E881F98100A4F1A5E02D20
:1014F00040E066E0CE010995E881F98104A8F5A9EC
:10150000E02DCE010995E881F98100A8F1A9E02D2F
:10151000CE0109951FBF8AEF8A9501F0E9F709EE20
:1015200013E08AEFE82E0150110981F08E2D8A9583
:1015300001F0E9F7E881F98102A4F3A5E02D63E069
:10154000CE01099582FFEFCF11E001C010E0FF202E
:1015500039F0E881F98106A0F7A1E02DCE010995C7
:10156000812FDF91CF911F910F91FF90EF90089500
:101570001F93CF93DF93EC01162F8A858617B1F066
:10158000262F30E08B81992787FD90952817390702
:101590006CF4EC81FD8183E0689FE00DF11D112466
:1015A00060817181CE010E94A4091A87DF91CF91D9
:1015B0001F910895AF92BF92DF92EF92FF920F9327
:1015C0001F93CF93DF931F92CDB7DEB75C017B01F2
:1015D000D42EDC01ED91FC9104A4F5A5E02D298326
:1015E00009952981622FC5010E94B80A4D2DB701C6
:1015F000C5010E94090AD501ED91FC9104A0F5A155
:10160000E02DC5010995F82ED501ED91FC9102A4BC
:10161000F3A5E02D60E3C501099583FF0AC0D5015C
:10162000ED91FC9100A4F1A5E02D4D2D6EE3C501D7
:101630000995FF2041F0D501ED91FC9106A0F7A19D
:10164000E02DC5010995C5010E945A0AF82E043003
:1016500011054CF080E00E94BE0EC5010E945A0A9E
:10166000811101C0F12CD501ED91FC910280F38133
:10167000E02DC50109958F2D0F90DF91CF911F911E
:101680000F91FF90EF90DF90BF90AF9008950F9370
:101690001F93CF93DF93EC01E881F98104A4F5A5B2
:1016A000E02D09958D85882309F481C06A816F3FFB
:1016B00009F47DC0CE010E94B80A1FB7F894E881F2
:1016C000F98104A0F5A1E02DCE010995082FE8814C
:1016D000F98100A4F1A5E02D43E068E0CE01099571
:1016E000E881F98100A4F1A5E02D40E068E0CE0199
:1016F00009954C85E881F98100A4F1A5E02D6EE7FC
:10170000CE010995E881F98102A4F3A5E02D60E3FB
:10171000CE010995E881F98100A4F1A5E02D87FFAC
:101720001FC042E065E0CE010995E881F98100A47F
:10173000F1A5E02D40E066E0CE010995E881F98150
:1017400002A4F3A5E02D63E3CE01099583FF15C044
:101750004C85E881F98100A4F1A5E02D6EE30BC072
:1017600040E165E0CE010995E881F98100A4F1A589
:10177000E02D40E066E0CE010995E881F98104A8FA
:10178000F5A9E02DCE010995E881F98102A8F3A918
:10179000E02DCE010995011102C01FBF08C0E881EC
:1017A000F98106A0F7A1E02DCE010995F6CFDF91D2
:1017B000CF911F910F910895EAE7F0E080818F7734
:1017C0008083E4E6F0E080818160808308951F9249
:1017D0000F920FB60F9211248F9381E08093B8027D
:1017E0008F910F900FBE0F901F9018951F93CF935E
:1017F000DF93D82FC62F0E94E70C182F90B7906860
:1018000090BFD0937C00C2301CF480E00E94BE0EDA
:1018100093B7917F926093BF10927B0090917A0072
:10182000C23014F0906201C09F7D90937A00909135
:101830007A00986090937A0090917A0090649093E7
:101840007A005FEF4FEFC150C7FD16C01092B8028B
:101850008091B802811108C093B7916093BF8895B9
:1018600093B79E7F93BFF4CF209178003091790099
:10187000351315C0241313C090917A00977F90936D
:101880007A0090917A009F7D90937A00D0917800B1
:10189000C0917900112371F00E94DC0B0BC0909174
:1018A000B702432F42274B5F9695940F9093B70250
:1018B000A901C9CF8D2F90E09C2BDF91CF911F9173
:1018C00008954091B20066B59091B9029F5F9093E0
:1018D000B90289270C945E0D0F931F93CF93DF936A
:1018E0001091B200CFEF01E0010FC15071F0D09123
:1018F000B20060E08D2F0E94610CD11711F0D0135F
:1019000006C080E00E94BE0EF0CF80E001C081E002
:10191000DF91CF911F910F910895CF93DF930E9494
:101920006C0CC82F882309F1D0E280E00E94BE0E23
:101930008FB7F8942091B2009091B2002917E1F38B
:1019400026B53091B2009091B2003917E1F396B507
:10195000921B8FBF89E8890F873040F0D15029F062
:1019600060E0892F0E94610CE0CFC0E08C2FDF91F6
:10197000CF910895FC0184819581089581E791E0DC
:101980000895CF93DF93EC0163E08EE40E94F60BA1
:10199000FC0180EC9FEFBF010E949A1387E3869FB2
:1019A0009001879F300D112485E0369527958A9503
:1019B000E1F7FB83EA833D832C8381E0233D3105FE
:1019C00008F080E08E83C901DF91CF910895809166
:1019D000640080FF0CC0809164008E7F809364005F
:1019E00080917A00806880937A0081E0089580E099
:1019F00008958091640087FF12C0809164008F7702
:101A0000809364008091BC0084608093BC0087EF69
:101A100091E00E94C5061092B80081E0089580E030
:101A20000895ECEBF0E080818B7F8083E4E6F0E0CA
:101A3000808180688083089560E087E00C941610B0
:101A4000CF93DF9388E10FB6F894809360001092F3
:101A500060000FBE0E941C0D10927A0080E880BFCB
:101A60008FE380937E0083E080937F00C4E6D0E024
:101A70008881816088830E94F8030E94110D88810B
:101A800088608883DF91CF9108950E94200DE4E65D
:101A9000F0E080818F6E808380818F7D8083808164
:101AA0008F7B80831092B00086E08093B10080E24B
:101AB0008093B60081E08093700008959091BD02FC
:101AC0002091BC0262272091BB0242272091BA02DA
:101AD0002F5F2093BA029227942798279093BD02F4
:101AE000690F6093BC026695640F69276093BB021F
:101AF00008958DE593E08093BA0208951F920F92A6
:101B00000FB60F9211242F938F939F938091C4024D
:101B10008E5F8C33C8F08091C2029091C30201960F
:101B2000803A25E0920758F08091C0029091C1025E
:101B300001969093C1028093C00280E090E0909360
:101B4000C3028093C20280E08093C4028091BF02EE
:101B50008823A1F08091BE02882369F0F89428E2DE
:101B600088E190E00FB6F894A895809360000FBECE
:101B700020936000FFCF81E08093BE029F918F9100
:101B80002F910F900FBE0F901F901895BF92CF927C
:101B9000DF92EF92FF920F931F93CF93DF937C011D
:101BA0000E94F90CB82E68E487EF91E00E94CF06FE
:101BB00061E087EF91E00E94860661E387EF91E0A4
:101BC0000E94860687EF91E00E94500768E487EF45
:101BD00091E00E94CF0661E087EF91E00E948606C7
:101BE000E091F701F091F8010190F081E02D61EBB7
:101BF00087EF91E0099587EF91E00E9450078823D5
:101C000019F080E098EF79C068E487EF91E00E94D6
:101C1000CF0661E087EF91E00E94860687EF91E0B2
:101C20000E9450078111EDCFC8E0D0E0219771F0FC
:101C300041E068E487EF91E00E944D07813009F7A9
:101C400087EF91E00E94360687FF11C068E487EFB6
:101C500091E00E94CF0660E087EF91E00E94860647
:101C600087EF91E00E945007882329F0CACF80E0D7
:101C70000E94BE0EDBCF42E068E487EF91E00E9455
:101C80004D07823009F0BDCF87EF91E00E945007E9
:101C90008111B7CF87EF91E00E9436068C0187EF64
:101CA00091E00E9436066C01B1100E94110D960160
:101CB000332784E0359527958A95E1F7A8015527C4
:101CC00094E0440F551F9A95E1F7242B352B07FF1D
:101CD00003C0C0E0D0EF02C0C0E0D0E0C22BD32BE5
:101CE000F70182818C1729F060E08C2D80270E94FB
:101CF000610CF701D383C283CE01DF91CF911F9195
:101D00000F91FF90EF90DF90CF90BF90089583B731
:101D1000817F866083BFF89483B7816083BF85B776
:101D2000806685BF8F7D85BF7894889583B78E7FC9
:101D300083BF789408951F920F920FB60F921124CB
:101D40008F939F93CF93DF931F92CDB7DEB788E138
:101D50000FB6F89480936000109260000FBECE0121
:101D6000019680688093C5020F90DF91CF919F917B
:101D70008F910F900FBE0F901F9018951092C50273
:101D800083FF02C098E201C098E08770892B28E1A8
:101D900030E00FB6F894A895209360000FBE8093B2
:101DA0006000809160008064809360000E94870ED4
:101DB0008091C5028823D1F388E10FB6F89480930F
:101DC0006000109260000FBE08951F920F920FB630
:101DD0000F9211242F933F938F939F93AF93BF93B1
:101DE0008091C7029091C802A091C902B091CA0225
:101DF0003091C60220E3230F2D3720F44096A11D19
:101E0000B11D05C023EB230F4196A11DB11D2093E9
:101E1000C6028093C7029093C802A093C902B093F0
:101E2000CA028091CB029091CC02A091CD02B091D8
:101E3000CE020196A11DB11D8093CB029093CC02DE
:101E4000A093CD02B093CE02BF91AF919F918F919D
:101E50003F912F910F900FBE0F901F9018952FB7A5
:101E6000F8946091C7027091C8028091C902909164
:101E7000CA022FBF08953FB7F8948091CB0290918A
:101E8000CC02A091CD02B091CE0226B5A89B05C090
:101E90002F3F19F00196A11DB11D3FBF6627782F76
:101EA000892F9A2F620F711D811D911D46E0660FCB
:101EB000771F881F991F4A95D1F708958F929F9297
:101EC000AF92BF92CF92DF92EF92FF926B017C01B3
:101ED0000E943B0F4B015C01C114D104E104F104E9
:101EE000F1F00E9499130E943B0F681979098A0941
:101EF0009B09683E73408105910570F321E0C21A89
:101F0000D108E108F10888EE880E83E0981EA11C34
:101F1000B11CC114D104E104F10429F7DDCFFF9015
:101F2000EF90DF90CF90BF90AF909F908F900895EB
:101F3000789484B5826084BD84B5816084BD85B5A4
:101F4000826085BD85B5816085BDEEE6F0E080816B
:101F500081608083E1E8F0E010828081826080838C
:101F6000E0E8F0E0808181608083E1EBF0E0808157
:101F700084608083E0EBF0E0808181608083EAE729
:101F8000F0E080818B7F808380818260808380818C
:101F9000816080838081806880831092C100089571
:101FA0008E3008F08E5087702091000190E4299FB8
:101FB00090011124822B80937C0080917A008064B0
:101FC00080937A0080917A0086FDFCCF8091780022
:101FD0002091790090E0922B0895833081F028F4CD
:101FE000813099F08230A1F008958730A9F08830CF
:101FF000B9F08430D1F4809180008F7D03C080914E
:1020000080008F7780938000089584B58F7702C019
:1020100084B58F7D84BD08958091B0008F7703C013
:102020008091B0008F7D8093B0000895CF93DF93AF
:1020300090E0FC01EF5BFD4F2491FC01EB5AFD4F5A
:102040008491882349F190E0880F991FFC01ED5895
:10205000FD4FA591B49187599D4FFC01C591D49135
:102060009FB7611108C0F8948C91209582238C93BE
:10207000888182230AC0623051F4F8948C91322F07
:10208000309583238C938881822B888304C0F894B5
:102090008C91822B8C939FBFDF91CF9108950F93EA
:1020A0001F93CF93DF931F92CDB7DEB7282F30E079
:1020B000F901E35DFD4F8491F901EF5BFD4F149150
:1020C000F901EB5AFD4F04910023C9F0882321F058
:1020D00069830E94ED0F6981E02FF0E0EE0FFF1F92
:1020E000E759FD4FA591B4919FB7F8948C91611178
:1020F00003C01095812301C0812B8C939FBF0F904B
:10210000DF91CF911F910F910895FC01818D228D58
:1021100090E0805C9F4F821B91098F7399270895EF
:10212000FC01918D828D981731F0828DE80FF11DA1
:10213000858D90E008958FEF9FEF0895FC01918DBC
:10214000828D981761F0828DDF01A80FB11D5D9619
:102150008C91928D9F5F9F73928F90E008958FEF87
:102160009FEF08958CE192E1892B49F080E090E0A7
:10217000892B29F00E941C1281110C9400000895F3
:10218000FC01848DDF01A80FB11DA35ABF4F2C9114
:10219000848D90E001968F739927848FA689B789E3
:1021A0002C93A089B1898C9180648C93938D848DBC
:1021B000981306C00288F389E02D80818F7D80838B
:1021C0000895CF93DF93EC01888D8823C9F0EA89C5
:1021D000FB89808185FD05C0A889B9898C9186FD20
:1021E0000FC00FB607FCF5CF808185FFF2CFA8891D
:1021F000B9898C9185FFEDCFCE010E94C010E7CF49
:10220000DF91CF910895CF92DF92FF920F931F93AA
:10221000CF93DF931F92CDB7DEB76C0181E0D6017B
:1022200058968C9358975B969C915B975C968C9193
:102230005C97981307C05096ED91FC91519780815F
:1022400085FD2EC0F601038D10E00F5F1F4F0F7349
:102250001127F02EF601848DF81211C00FB607FC7D
:10226000F9CFD6015096ED91FC915197808185FF71
:10227000F1CFC60169830E94C0106981EBCF838DC5
:10228000E80FF11DE35AFF4F6083D6015B960C9374
:102290005B975296ED91FC915397808180620CC0C0
:1022A000D6015696ED91FC91579760835096ED912B
:1022B000FC91519780818064808381E090E00F9051
:1022C000DF91CF911F910F91FF90DF90CF900895F4
:1022D000BF92CF92DF92EF92FF92CF93DF93EC0108
:1022E0006A017B01B22E60E970ED83E090E0A70106
:1022F00096010E94AE1321503109410951095695AA
:10230000479537952795E889F98982E080832115DB
:1023100080E1380798F0E889F989108268E478EE5E
:1023200081E090E0A70196010E94AE13215031098F
:10233000410951095695479537952795EC85FD85B7
:102340003083EE85FF852083188EEC89FD89B0826D
:10235000EA89FB89808180618083EA89FB898081A9
:1023600088608083EA89FB89808180688083EA892C
:10237000FB8980818F7D8083DF91CF91FF90EF90EB
:10238000DF90CF90BF9008951F920F920FB60F92DB
:1023900011242F938F939F93EF93FF93E091DF028C
:1023A000F091E0028081E091E502F091E60282FD89
:1023B00012C090818091E8028F5F8F732091E902B3
:1023C000821751F0E091E802F0E0E153FD4F958F64
:1023D0008093E80201C08081FF91EF919F918F91DE
:1023E0002F910F900FBE0F901F9018951F920F9274
:1023F0000FB60F9211242F933F934F935F936F93D8
:102400007F938F939F93AF93BF93EF93FF938FEC43
:1024100092E00E94C010FF91EF91BF91AF919F9108
:102420008F917F916F915F914F913F912F910F907D
:102430000FBE0F901F9018958FEC92E00E948510B0
:1024400021E0892B09F420E0822F08951092D20216
:102450001092D10288EE93E0A0E0B0E08093D30226
:102460009093D402A093D502B093D6028EEA91E065
:102470009093D0028093CF0285EC90E09093DC02A1
:102480008093DB0284EC90E09093DE028093DD0287
:1024900080EC90E09093E0028093DF0281EC90E08A
:1024A0009093E2028093E10282EC90E09093E40248
:1024B0008093E30286EC90E09093E6028093E5023D
:1024C0001092E8021092E9021092EA021092EB02D6
:1024D0000895CF92DF92EF92FF920F931F93CF93C5
:1024E000DF937C016A01EB0100E010E00C151D0593
:1024F00071F06991D701ED91FC910190F081E02D8F
:10250000C7010995892B19F00F5F1F4FEFCFC80145
:10251000DF91CF911F910F91FF90EF90DF90CF90BF
:1025200008956115710581F0DB010D900020E9F738
:10253000AD0141505109461B570BDC01ED91FC9157
:102540000280F381E02D099480E090E00895EF92FD
:10255000FF920F931F93CF93DF938C017B01C0E019
:10256000D0E0F701EC0FFD1F6491662359F0F801EC
:10257000A081B181ED91FC91C8010995892B11F0E1
:102580002196EFCFCE01DF91CF911F910F91FF9058
:10259000EF900895DC01ED91FC910190F081E02D28
:1025A00009946AEB71E00C9491120F931F93CF93EF
:1025B000DF93EC010E94A7128C01CE010E94D11280
:1025C000800F911FDF91CF911F910F9108950F936D
:1025D0001F93CF93DF93EC010E9491128C01CE01E7
:1025E0000E94D112800F911FDF91CF911F910F9107
:1025F00008958F929F92AF92BF92DF92EF92FF92D7
:102600000F931F93CF93DF93CDB7DEB7A1970FB68C
:10261000F894DEBF0FBECDBF7C01F42FD52ECB01C9
:1026200019A2223008F42AE08E010F5D1F4F822E7E
:10263000912CA12CB12C6F2F7D2DA50194010E940E
:10264000AE13F22FD32ECA01015011096A3014F4CF
:10265000E0E301C0E7E3E60FD801EC93232B242B42
:10266000252B49F7B801C7010E949112A1960FB618
:10267000F894DEBF0FBECDBFDF91CF911F910F91B8
:10268000FF90EF90DF90BF90AF909F908F90089554
:102690002115310541F4DC01ED91FC910190F081AF
:1026A000E02D642F09940C94F9129A01462F50E002
:1026B00060E070E00C9448130F931F93CF93DF9367
:1026C000EC019A01462F50E060E070E00E94481350
:1026D0008C01CE010E94D112800F911FDF91CF910A
:1026E0001F910F9108950F931F93CF93DF93EC01E8
:1026F0009A01AB0160E070E00E9448138C01CE01AA
:102700000E94D112800F911FDF91CF911F910F91E5
:10271000089508950E94980F0E9489130E946D01E8
:10272000C2EBD0E10E94AF012097E1F30E94B2100A
:10273000F9CF0895AA1BBB1B51E107C0AA1FBB1FFD
:10274000A617B70710F0A61BB70B881F991F5A953D
:10275000A9F780959095BC01CD010895A1E21A2EAC
:10276000AA1BBB1BFD010DC0AA1FBB1FEE1FFF1F35
:10277000A217B307E407F50720F0A21BB30BE40B85
:10278000F50B661F771F881F991F1A9469F76095CC
:102790007095809590959B01AC01BD01CF01089586
:1027A000EE0FFF1F0590F491E02D0994FB01DC0171
:1027B0004150504030F08D910190801919F4002063
:0C27C000B9F7881B990B0895F894FFCF1F
:1027CC0001547C4331360000000000FE0103020975
:1027DC00020C020502080200000000F7026912292F
:1027EC0002AB022C022F0200000000E201470B2C6E
:1027FC0004E401D709ED0114021C021F0222020D90
:10280C0002DA0AEF01230227026A0957025B02F679
:10281C00031704740278024304A70290029402A5E1
:10282C000200000000860659062E06360649065898
:10283C0006427C63560000000000C10CBA0C30024A
:10284C0032023402BE0C360238023A023C0200005C
:10285C000000C60DDB013E024002D901DF0142023D
:10286C00440246024802D101D701000000000311C6
:10287C00691285109E109010E1100D0A006E616EA9
:0C288C0000696E66006F7666002E00008A
:00000001FF
